{
  "contractName": "Campaign",
  "abi": [
    {
      "inputs": [
        {
          "internalType": "uint256",
          "name": "minimum",
          "type": "uint256"
        },
        {
          "internalType": "address",
          "name": "creator",
          "type": "address"
        }
      ],
      "payable": false,
      "stateMutability": "nonpayable",
      "type": "constructor"
    },
    {
      "constant": true,
      "inputs": [
        {
          "internalType": "address",
          "name": "",
          "type": "address"
        }
      ],
      "name": "approvers",
      "outputs": [
        {
          "internalType": "bool",
          "name": "",
          "type": "bool"
        }
      ],
      "payable": false,
      "stateMutability": "view",
      "type": "function"
    },
    {
      "constant": true,
      "inputs": [],
      "name": "approversCount",
      "outputs": [
        {
          "internalType": "uint256",
          "name": "",
          "type": "uint256"
        }
      ],
      "payable": false,
      "stateMutability": "view",
      "type": "function"
    },
    {
      "constant": true,
      "inputs": [],
      "name": "manager",
      "outputs": [
        {
          "internalType": "address",
          "name": "",
          "type": "address"
        }
      ],
      "payable": false,
      "stateMutability": "view",
      "type": "function"
    },
    {
      "constant": true,
      "inputs": [],
      "name": "minimumContribution",
      "outputs": [
        {
          "internalType": "uint256",
          "name": "",
          "type": "uint256"
        }
      ],
      "payable": false,
      "stateMutability": "view",
      "type": "function"
    },
    {
      "constant": true,
      "inputs": [
        {
          "internalType": "uint256",
          "name": "",
          "type": "uint256"
        }
      ],
      "name": "requests",
      "outputs": [
        {
          "internalType": "string",
          "name": "description",
          "type": "string"
        },
        {
          "internalType": "uint256",
          "name": "value",
          "type": "uint256"
        },
        {
          "internalType": "address payable",
          "name": "recipient",
          "type": "address"
        },
        {
          "internalType": "bool",
          "name": "complete",
          "type": "bool"
        },
        {
          "internalType": "uint256",
          "name": "approvalCount",
          "type": "uint256"
        }
      ],
      "payable": false,
      "stateMutability": "view",
      "type": "function"
    },
    {
      "constant": false,
      "inputs": [],
      "name": "contribute",
      "outputs": [],
      "payable": true,
      "stateMutability": "payable",
      "type": "function"
    },
    {
      "constant": false,
      "inputs": [
        {
          "internalType": "string",
          "name": "description",
          "type": "string"
        },
        {
          "internalType": "uint256",
          "name": "value",
          "type": "uint256"
        },
        {
          "internalType": "address payable",
          "name": "recipient",
          "type": "address"
        }
      ],
      "name": "createRequest",
      "outputs": [],
      "payable": false,
      "stateMutability": "nonpayable",
      "type": "function"
    },
    {
      "constant": false,
      "inputs": [
        {
          "internalType": "uint256",
          "name": "index",
          "type": "uint256"
        }
      ],
      "name": "approveRequest",
      "outputs": [],
      "payable": false,
      "stateMutability": "nonpayable",
      "type": "function"
    },
    {
      "constant": false,
      "inputs": [
        {
          "internalType": "uint256",
          "name": "index",
          "type": "uint256"
        }
      ],
      "name": "finalizeRequest",
      "outputs": [],
      "payable": false,
      "stateMutability": "nonpayable",
      "type": "function"
    },
    {
      "constant": true,
      "inputs": [],
      "name": "getSummary",
      "outputs": [
        {
          "internalType": "uint256",
          "name": "",
          "type": "uint256"
        },
        {
          "internalType": "uint256",
          "name": "",
          "type": "uint256"
        },
        {
          "internalType": "uint256",
          "name": "",
          "type": "uint256"
        },
        {
          "internalType": "uint256",
          "name": "",
          "type": "uint256"
        },
        {
          "internalType": "address",
          "name": "",
          "type": "address"
        }
      ],
      "payable": false,
      "stateMutability": "view",
      "type": "function"
    },
    {
      "constant": true,
      "inputs": [],
      "name": "getRequestCount",
      "outputs": [
        {
          "internalType": "uint256",
          "name": "",
          "type": "uint256"
        }
      ],
      "payable": false,
      "stateMutability": "view",
      "type": "function"
    }
  ],
  "bytecode": "0x608060405234801561001057600080fd5b50604051610feb380380610feb8339818101604052604081101561003357600080fd5b81019080805190602001909291908051906020019092919050505080600160006101000a81548173ffffffffffffffffffffffffffffffffffffffff021916908373ffffffffffffffffffffffffffffffffffffffff160217905550816002819055505050610f44806100a76000396000f3fe60806040526004361061009c5760003560e01c806381d12c581161006457806381d12c581461023a57806382fde0931461033a5780638a9cfd5514610365578063937e09b114610457578063d7bb99ba14610482578063d7d1bbdb1461048c5761009c565b806303441006146100a15780630a144391146100dc5780633fad1834146101455780634051ddac14610170578063481c6a75146101e3575b600080fd5b3480156100ad57600080fd5b506100da600480360360208110156100c457600080fd5b81019080803590602001909291905050506104c7565b005b3480156100e857600080fd5b5061012b600480360360208110156100ff57600080fd5b81019080803573ffffffffffffffffffffffffffffffffffffffff1690602001909291905050506106eb565b604051808215151515815260200191505060405180910390f35b34801561015157600080fd5b5061015a61070b565b6040518082815260200191505060405180910390f35b34801561017c57600080fd5b50610185610717565b604051808681526020018581526020018481526020018381526020018273ffffffffffffffffffffffffffffffffffffffff1673ffffffffffffffffffffffffffffffffffffffff1681526020019550505050505060405180910390f35b3480156101ef57600080fd5b506101f8610760565b604051808273ffffffffffffffffffffffffffffffffffffffff1673ffffffffffffffffffffffffffffffffffffffff16815260200191505060405180910390f35b34801561024657600080fd5b506102736004803603602081101561025d57600080fd5b8101908080359060200190929190505050610786565b60405180806020018681526020018573ffffffffffffffffffffffffffffffffffffffff1673ffffffffffffffffffffffffffffffffffffffff16815260200184151515158152602001838152602001828103825287818151815260200191508051906020019080838360005b838110156102fb5780820151818401526020810190506102e0565b50505050905090810190601f1680156103285780820380516001836020036101000a031916815260200191505b50965050505050505060405180910390f35b34801561034657600080fd5b5061034f61088e565b6040518082815260200191505060405180910390f35b34801561037157600080fd5b506104556004803603606081101561038857600080fd5b81019080803590602001906401000000008111156103a557600080fd5b8201836020820111156103b757600080fd5b803590602001918460018302840111640100000000831117156103d957600080fd5b91908080601f016020809104026020016040519081016040528093929190818152602001838380828437600081840152601f19601f82011690508083019250505050505050919291929080359060200190929190803573ffffffffffffffffffffffffffffffffffffffff169060200190929190505050610894565b005b34801561046357600080fd5b5061046c610a54565b6040518082815260200191505060405180910390f35b61048a610a5a565b005b34801561049857600080fd5b506104c5600480360360208110156104af57600080fd5b8101908080359060200190929190505050610b20565b005b600160009054906101000a900473ffffffffffffffffffffffffffffffffffffffff1673ffffffffffffffffffffffffffffffffffffffff163373ffffffffffffffffffffffffffffffffffffffff161461056d576040517f08c379a0000000000000000000000000000000000000000000000000000000008152600401808060200182810382526032815260200180610ede6032913960400191505060405180910390fd5b600080828154811061057b57fe5b9060005260206000209060050201905060026004548161059757fe5b048160030154116105f3576040517f08c379a0000000000000000000000000000000000000000000000000000000008152600401808060200182810382526030815260200180610eae6030913960400191505060405180910390fd5b8060020160149054906101000a900460ff161561065b576040517f08c379a0000000000000000000000000000000000000000000000000000000008152600401808060200182810382526028815260200180610e536028913960400191505060405180910390fd5b8060020160009054906101000a900473ffffffffffffffffffffffffffffffffffffffff1673ffffffffffffffffffffffffffffffffffffffff166108fc82600101549081150290604051600060405180830381858888f193505050501580156106c9573d6000803e3d6000fd5b5060018160020160146101000a81548160ff0219169083151502179055505050565b60036020528060005260406000206000915054906101000a900460ff1681565b60008080549050905090565b600080600080600060025447600080549050600454600160009054906101000a900473ffffffffffffffffffffffffffffffffffffffff16945094509450945094509091929394565b600160009054906101000a900473ffffffffffffffffffffffffffffffffffffffff1681565b6000818154811061079357fe5b9060005260206000209060050201600091509050806000018054600181600116156101000203166002900480601f01602080910402602001604051908101604052809291908181526020018280546001816001161561010002031660029004801561083f5780601f106108145761010080835404028352916020019161083f565b820191906000526020600020905b81548152906001019060200180831161082257829003601f168201915b5050505050908060010154908060020160009054906101000a900473ffffffffffffffffffffffffffffffffffffffff16908060020160149054906101000a900460ff16908060030154905085565b60045481565b600160009054906101000a900473ffffffffffffffffffffffffffffffffffffffff1673ffffffffffffffffffffffffffffffffffffffff163373ffffffffffffffffffffffffffffffffffffffff161461093a576040517f08c379a0000000000000000000000000000000000000000000000000000000008152600401808060200182810382526032815260200180610ede6032913960400191505060405180910390fd5b610942610cf7565b6040518060a001604052808581526020018481526020018373ffffffffffffffffffffffffffffffffffffffff168152602001600015158152602001600081525090506000819080600181540180825580915050906001820390600052602060002090600502016000909192909190915060008201518160000190805190602001906109cf929190610d3e565b506020820151816001015560408201518160020160006101000a81548173ffffffffffffffffffffffffffffffffffffffff021916908373ffffffffffffffffffffffffffffffffffffffff16021790555060608201518160020160146101000a81548160ff0219169083151502179055506080820151816003015550505050505050565b60025481565b6002543411610ab4576040517f08c379a0000000000000000000000000000000000000000000000000000000008152600401808060200182810382526043815260200180610de46043913960600191505060405180910390fd5b6001600360003373ffffffffffffffffffffffffffffffffffffffff1673ffffffffffffffffffffffffffffffffffffffff16815260200190815260200160002060006101000a81548160ff021916908315150217905550600460008154809291906001019190505550565b6000808281548110610b2e57fe5b90600052602060002090600502019050600360003373ffffffffffffffffffffffffffffffffffffffff1673ffffffffffffffffffffffffffffffffffffffff16815260200190815260200160002060009054906101000a900460ff16610be0576040517f08c379a0000000000000000000000000000000000000000000000000000000008152600401808060200182810382526033815260200180610e7b6033913960400191505060405180910390fd5b8060040160003373ffffffffffffffffffffffffffffffffffffffff1673ffffffffffffffffffffffffffffffffffffffff16815260200190815260200160002060009054906101000a900460ff1615610c85576040517f08c379a000000000000000000000000000000000000000000000000000000000815260040180806020018281038252602c815260200180610e27602c913960400191505060405180910390fd5b60018160040160003373ffffffffffffffffffffffffffffffffffffffff1673ffffffffffffffffffffffffffffffffffffffff16815260200190815260200160002060006101000a81548160ff02191690831515021790555080600301600081548092919060010191905055505050565b6040518060a001604052806060815260200160008152602001600073ffffffffffffffffffffffffffffffffffffffff168152602001600015158152602001600081525090565b828054600181600116156101000203166002900490600052602060002090601f016020900481019282601f10610d7f57805160ff1916838001178555610dad565b82800160010185558215610dad579182015b82811115610dac578251825591602001919060010190610d91565b5b509050610dba9190610dbe565b5090565b610de091905b80821115610ddc576000816000905550600101610dc4565b5090565b9056fe54686520616d6f756e74207061696420646f6573206e6f74206d65657420746865206d696e696d756d20636f6e747269627574696f6e20726571756972656d656e742e5468652073656e6465722068617320616c726561647920617070726f766564207468697320726571756573745468697320726571756573742068617320616c7265616479206265656e2066696e616c697a65642e5468652073656e646572206973206e6f7420617574686f72697a656420746f20706572666f726d207468697320616374696f6e4e6f7420656e6f75676820617070726f76657273206861766520617070726f766564207468697320726571756573742e5468652073656e64657220697320756e617574686f72697a656420746f20706572666f726d207468697320616374696f6e2ea265627a7a723158207a17d4766a048a1e36a40270461fd31d85fb0bb2d6cc619c7714ce14b562d1dc64736f6c63430005100032",
  "source": "pragma solidity >= 0.5.0 < 0.7.0;\n\n/// @title A crowdfunding campaign contract\n/// @author Author_Name_Goes_Here\n/// @notice You can use this contract to create a basic campaign, contribute, and manage spending requests\n/// @dev Any notes for the devs go here\ncontract Campaign {\n  struct Request {\n    string description;\n    uint value;\n    address payable recipient;\n    bool complete;\n    uint approvalCount;\n    mapping(address => bool) approvals;\n  }\n\n  Request[] public requests;\n  address public manager;\n  uint public minimumContribution;\n  mapping(address => bool) public approvers;\n  uint public approversCount;\n\n  modifier restricted() {\n    require(msg.sender == manager, \"The sender is unauthorized to perform this action.\");\n    _;\n  }\n\n  constructor(uint minimum, address creator) public {\n    manager = creator;\n    minimumContribution = minimum;\n  }\n\n  /// @notice Contribute funds to a campaign\n  function contribute() public payable {\n    require(msg.value > minimumContribution, \"The amount paid does not meet the minimum contribution requirement.\");\n\n    approvers[msg.sender] = true;\n    approversCount++;\n  }\n\n  /// @notice Request a payment from the campaign fund\n  /// @dev Only contract manager is authorized to perform this action\n  /// @param description The purpose of the request\n  /// @param value The amount you want to request (in wei)\n  /// @param recipient The address you are requesting the amount to be sent to\n  function createRequest(string memory description, uint value, address payable recipient) public restricted {\n    Request memory newRequest = Request ({\n      description: description,\n      value: value,\n      recipient: recipient,\n      complete: false,\n      approvalCount: 0\n    });\n\n    requests.push(newRequest);\n  }\n\n  /// @notice Approve a payment request\n  /// @param index The index of the request to be approved\n  function approveRequest(uint index) public {\n    Request storage request = requests[index];\n    \n    require(approvers[msg.sender], \"The sender is not authorized to perform this action\");\n    require(!request.approvals[msg.sender], \"The sender has already approved this request\");\n\n    request.approvals[msg.sender] = true;\n    request.approvalCount++;\n  }\n\n  /// @notice Finalize a request and pay out the funds\n  /// @param index The index of the request to be finalized\n  function finalizeRequest(uint index) public restricted {\n    Request storage request = requests[index];\n\n    require(request.approvalCount > (approversCount / 2), \"Not enough approvers have approved this request.\");\n    require(!request.complete, \"This request has already been finalized.\");\n\n\n    request.recipient.transfer(request.value);\n    request.complete = true;\n  }\n\n  /// @notice Get a summary of contract data for our DApp\n  /// @dev This function is for convenience so that we don't have to make a separate\n  /// request for each public variable\n  /// @return minimum contribution required to become an approver\n  /// @return balance/current funds in the campaign\n  /// @return number of open requests\n  /// @return number of approvers in the campaign\n  /// @return the manager of the campaign\n  function getSummary() public view returns (uint, uint, uint, uint, address) {\n    return (\n      minimumContribution,\n      address(this).balance,\n      requests.length,\n      approversCount,\n      manager\n    );\n  }\n\n/// @notice Get the number of payment requests to the campaign\n/// @return the number of requests\n  function getRequestCount() public view returns (uint) {\n    return requests.length;\n  }\n}\n",
  "sourcePath": "/home/sharan/kickstarter-campaign/ethereum/contracts/Campaign.sol",
  "compiler": {
    "name": "solc",
    "version": "0.5.16+commit.9c3226ce.Emscripten.clang"
  },
  "schemaVersion": "3.0.23",
  "updatedAt": "2020-02-27T09:52:12.865Z",
  "devdoc": {
    "author": "Author_Name_Goes_Here",
    "details": "Any notes for the devs go here",
    "methods": {
      "approveRequest(uint256)": {
        "params": {
          "index": "The index of the request to be approved"
        }
      },
      "createRequest(string,uint256,address)": {
        "details": "Only contract manager is authorized to perform this action",
        "params": {
          "description": "The purpose of the request",
          "recipient": "The address you are requesting the amount to be sent to",
          "value": "The amount you want to request (in wei)"
        }
      },
      "finalizeRequest(uint256)": {
        "params": {
          "index": "The index of the request to be finalized"
        }
      },
      "getRequestCount()": {
        "return": "the number of requests"
      },
      "getSummary()": {
        "details": "This function is for convenience so that we don't have to make a separate request for each public variable",
        "return": "minimum contribution required to become an approverbalance/current funds in the campaignnumber of open requestsnumber of approvers in the campaignthe manager of the campaign"
      }
    },
    "title": "A crowdfunding campaign contract"
  },
  "userdoc": {
    "methods": {
      "approveRequest(uint256)": {
        "notice": "Approve a payment request"
      },
      "contribute()": {
        "notice": "Contribute funds to a campaign"
      },
      "createRequest(string,uint256,address)": {
        "notice": "Request a payment from the campaign fund"
      },
      "finalizeRequest(uint256)": {
        "notice": "Finalize a request and pay out the funds"
      },
      "getRequestCount()": {
        "notice": "Get the number of payment requests to the campaign"
      },
      "getSummary()": {
        "notice": "Get a summary of contract data for our DApp"
      }
    },
    "notice": "You can use this contract to create a basic campaign, contribute, and manage spending requests"
  }
}