{
  "contractName": "Campaign",
  "abi": [
    {
      "inputs": [
        {
          "internalType": "uint256",
          "name": "minimum",
          "type": "uint256"
        },
        {
          "internalType": "address",
          "name": "creator",
          "type": "address"
        }
      ],
      "payable": false,
      "stateMutability": "nonpayable",
      "type": "constructor"
    },
    {
      "constant": true,
      "inputs": [
        {
          "internalType": "address",
          "name": "",
          "type": "address"
        }
      ],
      "name": "approvers",
      "outputs": [
        {
          "internalType": "bool",
          "name": "",
          "type": "bool"
        }
      ],
      "payable": false,
      "stateMutability": "view",
      "type": "function"
    },
    {
      "constant": true,
      "inputs": [],
      "name": "approversCount",
      "outputs": [
        {
          "internalType": "uint256",
          "name": "",
          "type": "uint256"
        }
      ],
      "payable": false,
      "stateMutability": "view",
      "type": "function"
    },
    {
      "constant": true,
      "inputs": [],
      "name": "manager",
      "outputs": [
        {
          "internalType": "address",
          "name": "",
          "type": "address"
        }
      ],
      "payable": false,
      "stateMutability": "view",
      "type": "function"
    },
    {
      "constant": true,
      "inputs": [],
      "name": "minimumContribution",
      "outputs": [
        {
          "internalType": "uint256",
          "name": "",
          "type": "uint256"
        }
      ],
      "payable": false,
      "stateMutability": "view",
      "type": "function"
    },
    {
      "constant": true,
      "inputs": [
        {
          "internalType": "uint256",
          "name": "",
          "type": "uint256"
        }
      ],
      "name": "requests",
      "outputs": [
        {
          "internalType": "string",
          "name": "description",
          "type": "string"
        },
        {
          "internalType": "uint256",
          "name": "value",
          "type": "uint256"
        },
        {
          "internalType": "address payable",
          "name": "recipient",
          "type": "address"
        },
        {
          "internalType": "bool",
          "name": "complete",
          "type": "bool"
        },
        {
          "internalType": "uint256",
          "name": "approvalCount",
          "type": "uint256"
        }
      ],
      "payable": false,
      "stateMutability": "view",
      "type": "function"
    },
    {
      "constant": false,
      "inputs": [],
      "name": "contribute",
      "outputs": [],
      "payable": true,
      "stateMutability": "payable",
      "type": "function"
    },
    {
      "constant": false,
      "inputs": [
        {
          "internalType": "string",
          "name": "description",
          "type": "string"
        },
        {
          "internalType": "uint256",
          "name": "value",
          "type": "uint256"
        },
        {
          "internalType": "address payable",
          "name": "recipient",
          "type": "address"
        }
      ],
      "name": "createRequest",
      "outputs": [],
      "payable": false,
      "stateMutability": "nonpayable",
      "type": "function"
    },
    {
      "constant": false,
      "inputs": [
        {
          "internalType": "uint256",
          "name": "index",
          "type": "uint256"
        }
      ],
      "name": "approveRequest",
      "outputs": [],
      "payable": false,
      "stateMutability": "nonpayable",
      "type": "function"
    },
    {
      "constant": false,
      "inputs": [
        {
          "internalType": "uint256",
          "name": "index",
          "type": "uint256"
        }
      ],
      "name": "finalizeRequest",
      "outputs": [],
      "payable": false,
      "stateMutability": "nonpayable",
      "type": "function"
    },
    {
      "constant": true,
      "inputs": [],
      "name": "getSummary",
      "outputs": [
        {
          "internalType": "uint256",
          "name": "",
          "type": "uint256"
        },
        {
          "internalType": "uint256",
          "name": "",
          "type": "uint256"
        },
        {
          "internalType": "uint256",
          "name": "",
          "type": "uint256"
        },
        {
          "internalType": "uint256",
          "name": "",
          "type": "uint256"
        },
        {
          "internalType": "address",
          "name": "",
          "type": "address"
        }
      ],
      "payable": false,
      "stateMutability": "view",
      "type": "function"
    },
    {
      "constant": true,
      "inputs": [],
      "name": "getRequestCount",
      "outputs": [
        {
          "internalType": "uint256",
          "name": "",
          "type": "uint256"
        }
      ],
      "payable": false,
      "stateMutability": "view",
      "type": "function"
    },
    {
      "constant": true,
      "inputs": [],
      "name": "getAllRequests",
      "outputs": [
        {
          "internalType": "uint256",
          "name": "",
          "type": "uint256"
        },
        {
          "internalType": "string[]",
          "name": "",
          "type": "string[]"
        },
        {
          "internalType": "uint256[]",
          "name": "",
          "type": "uint256[]"
        },
        {
          "internalType": "address[]",
          "name": "",
          "type": "address[]"
        },
        {
          "internalType": "bool[]",
          "name": "",
          "type": "bool[]"
        },
        {
          "internalType": "uint256[]",
          "name": "",
          "type": "uint256[]"
        }
      ],
      "payable": false,
      "stateMutability": "view",
      "type": "function"
    }
  ],
  "bytecode": "0x60806040523480156200001157600080fd5b5060405162001b4938038062001b498339818101604052620000379190810190620000b5565b80600160006101000a81548173ffffffffffffffffffffffffffffffffffffffff021916908373ffffffffffffffffffffffffffffffffffffffff16021790555081600281905550505062000168565b600081519050620000988162000134565b92915050565b600081519050620000af816200014e565b92915050565b60008060408385031215620000c957600080fd5b6000620000d9858286016200009e565b9250506020620000ec8582860162000087565b9150509250929050565b600062000103826200010a565b9050919050565b600073ffffffffffffffffffffffffffffffffffffffff82169050919050565b6000819050919050565b6200013f81620000f6565b81146200014b57600080fd5b50565b62000159816200012a565b81146200016557600080fd5b50565b6119d180620001786000396000f3fe6080604052600436106100a75760003560e01c806382fde0931161006457806382fde093146101d85780638a9cfd5514610203578063937e09b11461022c578063d7bb99ba14610257578063d7d1bbdb14610261578063fb1a002a1461028a576100a7565b806303441006146100ac5780630a144391146100d55780633fad1834146101125780634051ddac1461013d578063481c6a751461016c57806381d12c5814610197575b600080fd5b3480156100b857600080fd5b506100d360048036036100ce9190810190610f77565b6102ba565b005b3480156100e157600080fd5b506100fc60048036036100f79190810190610ee7565b61049c565b604051610109919061150b565b60405180910390f35b34801561011e57600080fd5b506101276104bc565b6040516101349190611640565b60405180910390f35b34801561014957600080fd5b506101526104c8565b6040516101639594939291906116df565b60405180910390f35b34801561017857600080fd5b50610181610511565b60405161018e91906114f0565b60405180910390f35b3480156101a357600080fd5b506101be60048036036101b99190810190610f77565b610537565b6040516101cf959493929190611526565b60405180910390f35b3480156101e457600080fd5b506101ed61063f565b6040516101fa9190611640565b60405180910390f35b34801561020f57600080fd5b5061022a60048036036102259190810190610f10565b610645565b005b34801561023857600080fd5b506102416107ef565b60405161024e9190611640565b60405180910390f35b61025f6107f5565b005b34801561026d57600080fd5b5061028860048036036102839190810190610f77565b6108a5565b005b34801561029657600080fd5b5061029f610a50565b6040516102b19695949392919061165b565b60405180910390f35b600160009054906101000a900473ffffffffffffffffffffffffffffffffffffffff1673ffffffffffffffffffffffffffffffffffffffff163373ffffffffffffffffffffffffffffffffffffffff161461034a576040517f08c379a000000000000000000000000000000000000000000000000000000000815260040161034190611620565b60405180910390fd5b600080828154811061035857fe5b9060005260206000209060050201905060026004548161037457fe5b048160030154116103ba576040517f08c379a00000000000000000000000000000000000000000000000000000000081526004016103b190611600565b60405180910390fd5b8060020160149054906101000a900460ff161561040c576040517f08c379a0000000000000000000000000000000000000000000000000000000008152600401610403906115c0565b60405180910390fd5b8060020160009054906101000a900473ffffffffffffffffffffffffffffffffffffffff1673ffffffffffffffffffffffffffffffffffffffff166108fc82600101549081150290604051600060405180830381858888f1935050505015801561047a573d6000803e3d6000fd5b5060018160020160146101000a81548160ff0219169083151502179055505050565b60036020528060005260406000206000915054906101000a900460ff1681565b60008080549050905090565b600080600080600060025447600080549050600454600160009054906101000a900473ffffffffffffffffffffffffffffffffffffffff16945094509450945094509091929394565b600160009054906101000a900473ffffffffffffffffffffffffffffffffffffffff1681565b6000818154811061054457fe5b9060005260206000209060050201600091509050806000018054600181600116156101000203166002900480601f0160208091040260200160405190810160405280929190818152602001828054600181600116156101000203166002900480156105f05780601f106105c5576101008083540402835291602001916105f0565b820191906000526020600020905b8154815290600101906020018083116105d357829003601f168201915b5050505050908060010154908060020160009054906101000a900473ffffffffffffffffffffffffffffffffffffffff16908060020160149054906101000a900460ff16908060030154905085565b60045481565b600160009054906101000a900473ffffffffffffffffffffffffffffffffffffffff1673ffffffffffffffffffffffffffffffffffffffff163373ffffffffffffffffffffffffffffffffffffffff16146106d5576040517f08c379a00000000000000000000000000000000000000000000000000000000081526004016106cc90611620565b60405180910390fd5b6106dd610d68565b6040518060a001604052808581526020018481526020018373ffffffffffffffffffffffffffffffffffffffff1681526020016000151581526020016000815250905060008190806001815401808255809150509060018203906000526020600020906005020160009091929091909150600082015181600001908051906020019061076a929190610daf565b506020820151816001015560408201518160020160006101000a81548173ffffffffffffffffffffffffffffffffffffffff021916908373ffffffffffffffffffffffffffffffffffffffff16021790555060608201518160020160146101000a81548160ff0219169083151502179055506080820151816003015550505050505050565b60025481565b6002543411610839576040517f08c379a000000000000000000000000000000000000000000000000000000000815260040161083090611580565b60405180910390fd5b6001600360003373ffffffffffffffffffffffffffffffffffffffff1673ffffffffffffffffffffffffffffffffffffffff16815260200190815260200160002060006101000a81548160ff021916908315150217905550600460008154809291906001019190505550565b60008082815481106108b357fe5b90600052602060002090600502019050600360003373ffffffffffffffffffffffffffffffffffffffff1673ffffffffffffffffffffffffffffffffffffffff16815260200190815260200160002060009054906101000a900460ff1661094f576040517f08c379a0000000000000000000000000000000000000000000000000000000008152600401610946906115e0565b60405180910390fd5b8060040160003373ffffffffffffffffffffffffffffffffffffffff1673ffffffffffffffffffffffffffffffffffffffff16815260200190815260200160002060009054906101000a900460ff16156109de576040517f08c379a00000000000000000000000000000000000000000000000000000000081526004016109d5906115a0565b60405180910390fd5b60018160040160003373ffffffffffffffffffffffffffffffffffffffff1673ffffffffffffffffffffffffffffffffffffffff16815260200190815260200160002060006101000a81548160ff02191690831515021790555080600301600081548092919060010191905055505050565b6000606080606080606080600080549050604051908082528060200260200182016040528015610a9457816020015b6060815260200190600190039081610a7f5790505b5090506060600080549050604051908082528060200260200182016040528015610acd5781602001602082028038833980820191505090505b5090506060600080549050604051908082528060200260200182016040528015610b065781602001602082028038833980820191505090505b5090506060600080549050604051908082528060200260200182016040528015610b3f5781602001602082028038833980820191505090505b5090506060600080549050604051908082528060200260200182016040528015610b785781602001602082028038833980820191505090505b50905060008090505b600080549050811015610d43576000808281548110610b9c57fe5b90600052602060002090600502019050806000018054600181600116156101000203166002900480601f016020809104026020016040519081016040528092919081815260200182805460018160011615610100020316600290048015610c445780601f10610c1957610100808354040283529160200191610c44565b820191906000526020600020905b815481529060010190602001808311610c2757829003601f168201915b5050505050878381518110610c5557fe5b60200260200101819052508060010154868381518110610c7157fe5b6020026020010181815250508060020160009054906101000a900473ffffffffffffffffffffffffffffffffffffffff16858381518110610cae57fe5b602002602001019073ffffffffffffffffffffffffffffffffffffffff16908173ffffffffffffffffffffffffffffffffffffffff16815250508060020160149054906101000a900460ff16848381518110610d0657fe5b6020026020010190151590811515815250508060030154838381518110610d2957fe5b602002602001018181525050508080600101915050610b81565b5060008054905085858585859a509a509a509a509a509a505050505050909192939495565b6040518060a001604052806060815260200160008152602001600073ffffffffffffffffffffffffffffffffffffffff168152602001600015158152602001600081525090565b828054600181600116156101000203166002900490600052602060002090601f016020900481019282601f10610df057805160ff1916838001178555610e1e565b82800160010185558215610e1e579182015b82811115610e1d578251825591602001919060010190610e02565b5b509050610e2b9190610e2f565b5090565b610e5191905b80821115610e4d576000816000905550600101610e35565b5090565b90565b600081359050610e6381611949565b92915050565b600081359050610e7881611960565b92915050565b600082601f830112610e8f57600080fd5b8135610ea2610e9d8261175f565b611732565b91508082526020830160208301858383011115610ebe57600080fd5b610ec98382846118f6565b50505092915050565b600081359050610ee181611977565b92915050565b600060208284031215610ef957600080fd5b6000610f0784828501610e54565b91505092915050565b600080600060608486031215610f2557600080fd5b600084013567ffffffffffffffff811115610f3f57600080fd5b610f4b86828701610e7e565b9350506020610f5c86828701610ed2565b9250506040610f6d86828701610e69565b9150509250925092565b600060208284031215610f8957600080fd5b6000610f9784828501610ed2565b91505092915050565b6000610fac838361100b565b60208301905092915050565b6000610fc483836111b8565b60208301905092915050565b6000610fdc83836111d6565b905092915050565b6000610ff083836114d2565b60208301905092915050565b611005816118ae565b82525050565b6110148161189c565b82525050565b6110238161189c565b82525050565b6000611034826117cb565b61103e8185611836565b93506110498361178b565b8060005b8381101561107a5781516110618882610fa0565b975061106c83611802565b92505060018101905061104d565b5085935050505092915050565b6000611092826117d6565b61109c8185611847565b93506110a78361179b565b8060005b838110156110d85781516110bf8882610fb8565b97506110ca8361180f565b9250506001810190506110ab565b5085935050505092915050565b60006110f0826117e1565b6110fa8185611858565b93508360208202850161110c856117ab565b8060005b8581101561114857848403895281516111298582610fd0565b94506111348361181c565b925060208a01995050600181019050611110565b50829750879550505050505092915050565b6000611165826117ec565b61116f8185611869565b935061117a836117bb565b8060005b838110156111ab5781516111928882610fe4565b975061119d83611829565b92505060018101905061117e565b5085935050505092915050565b6111c1816118c0565b82525050565b6111d0816118c0565b82525050565b60006111e1826117f7565b6111eb818561187a565b93506111fb818560208601611905565b61120481611938565b840191505092915050565b600061121a826117f7565b611224818561188b565b9350611234818560208601611905565b61123d81611938565b840191505092915050565b600061125560438361188b565b91507f54686520616d6f756e74207061696420646f6573206e6f74206d65657420746860008301527f65206d696e696d756d20636f6e747269627574696f6e20726571756972656d6560208301527f6e742e00000000000000000000000000000000000000000000000000000000006040830152606082019050919050565b60006112e1602c8361188b565b91507f5468652073656e6465722068617320616c726561647920617070726f7665642060008301527f74686973207265717565737400000000000000000000000000000000000000006020830152604082019050919050565b600061134760288361188b565b91507f5468697320726571756573742068617320616c7265616479206265656e20666960008301527f6e616c697a65642e0000000000000000000000000000000000000000000000006020830152604082019050919050565b60006113ad60338361188b565b91507f5468652073656e646572206973206e6f7420617574686f72697a656420746f2060008301527f706572666f726d207468697320616374696f6e000000000000000000000000006020830152604082019050919050565b600061141360308361188b565b91507f4e6f7420656e6f75676820617070726f76657273206861766520617070726f7660008301527f6564207468697320726571756573742e000000000000000000000000000000006020830152604082019050919050565b600061147960328361188b565b91507f5468652073656e64657220697320756e617574686f72697a656420746f20706560008301527f72666f726d207468697320616374696f6e2e00000000000000000000000000006020830152604082019050919050565b6114db816118ec565b82525050565b6114ea816118ec565b82525050565b6000602082019050611505600083018461101a565b92915050565b600060208201905061152060008301846111c7565b92915050565b600060a0820190508181036000830152611540818861120f565b905061154f60208301876114e1565b61155c6040830186610ffc565b61156960608301856111c7565b61157660808301846114e1565b9695505050505050565b6000602082019050818103600083015261159981611248565b9050919050565b600060208201905081810360008301526115b9816112d4565b9050919050565b600060208201905081810360008301526115d98161133a565b9050919050565b600060208201905081810360008301526115f9816113a0565b9050919050565b6000602082019050818103600083015261161981611406565b9050919050565b600060208201905081810360008301526116398161146c565b9050919050565b600060208201905061165560008301846114e1565b92915050565b600060c08201905061167060008301896114e1565b818103602083015261168281886110e5565b90508181036040830152611696818761115a565b905081810360608301526116aa8186611029565b905081810360808301526116be8185611087565b905081810360a08301526116d2818461115a565b9050979650505050505050565b600060a0820190506116f460008301886114e1565b61170160208301876114e1565b61170e60408301866114e1565b61171b60608301856114e1565b611728608083018461101a565b9695505050505050565b6000604051905081810181811067ffffffffffffffff8211171561175557600080fd5b8060405250919050565b600067ffffffffffffffff82111561177657600080fd5b601f19601f8301169050602081019050919050565b6000819050602082019050919050565b6000819050602082019050919050565b6000819050602082019050919050565b6000819050602082019050919050565b600081519050919050565b600081519050919050565b600081519050919050565b600081519050919050565b600081519050919050565b6000602082019050919050565b6000602082019050919050565b6000602082019050919050565b6000602082019050919050565b600082825260208201905092915050565b600082825260208201905092915050565b600082825260208201905092915050565b600082825260208201905092915050565b600082825260208201905092915050565b600082825260208201905092915050565b60006118a7826118cc565b9050919050565b60006118b9826118cc565b9050919050565b60008115159050919050565b600073ffffffffffffffffffffffffffffffffffffffff82169050919050565b6000819050919050565b82818337600083830152505050565b60005b83811015611923578082015181840152602081019050611908565b83811115611932576000848401525b50505050565b6000601f19601f8301169050919050565b6119528161189c565b811461195d57600080fd5b50565b611969816118ae565b811461197457600080fd5b50565b611980816118ec565b811461198b57600080fd5b5056fea365627a7a7231582049d3d3f67322a1e12e25281b44b8c71178d892bfe176d6cce5f8ebffd9c000d36c6578706572696d656e74616cf564736f6c63430005100040",
  "source": "pragma solidity >= 0.5.0 < 0.7.0;\npragma experimental ABIEncoderV2;\n\n/// @title A crowdfunding campaign contract\n/// @author Author_Name_Goes_Here\n/// @notice You can use this contract to create a basic campaign, contribute, and manage spending requests\n/// @dev Any notes for the devs go here\ncontract Campaign {\n  struct Request {\n    string description;\n    uint value;\n    address payable recipient;\n    bool complete;\n    uint approvalCount;\n    mapping(address => bool) approvals;\n  }\n\n  Request[] public requests;\n  address public manager;\n  uint public minimumContribution;\n  mapping(address => bool) public approvers;\n  uint public approversCount;\n\n  modifier restricted() {\n    require(msg.sender == manager, \"The sender is unauthorized to perform this action.\");\n    _;\n  }\n\n  constructor(uint minimum, address creator) public {\n    manager = creator;\n    minimumContribution = minimum;\n  }\n\n  /// @notice Contribute funds to a campaign\n  function contribute() public payable {\n    require(msg.value > minimumContribution, \"The amount paid does not meet the minimum contribution requirement.\");\n\n    approvers[msg.sender] = true;\n    approversCount++;\n  }\n\n  /// @notice Request a payment from the campaign fund\n  /// @dev Only contract manager is authorized to perform this action\n  /// @param description The purpose of the request\n  /// @param value The amount you want to request (in wei)\n  /// @param recipient The address you are requesting the amount to be sent to\n  function createRequest(string memory description, uint value, address payable recipient) public restricted {\n    Request memory newRequest = Request ({\n      description: description,\n      value: value,\n      recipient: recipient,\n      complete: false,\n      approvalCount: 0\n    });\n\n    requests.push(newRequest);\n  }\n\n  /// @notice Approve a payment request\n  /// @param index The index of the request to be approved\n  function approveRequest(uint index) public {\n    Request storage request = requests[index];\n    \n    require(approvers[msg.sender], \"The sender is not authorized to perform this action\");\n    require(!request.approvals[msg.sender], \"The sender has already approved this request\");\n\n    request.approvals[msg.sender] = true;\n    request.approvalCount++;\n  }\n\n  /// @notice Finalize a request and pay out the funds\n  /// @param index The index of the request to be finalized\n  function finalizeRequest(uint index) public restricted {\n    Request storage request = requests[index];\n\n    require(request.approvalCount > (approversCount / 2), \"Not enough approvers have approved this request.\");\n    require(!request.complete, \"This request has already been finalized.\");\n\n\n    request.recipient.transfer(request.value);\n    request.complete = true;\n  }\n\n  /// @notice Get a summary of contract data for our DApp\n  /// @dev This function is for convenience so that we don't have to make a separate\n  /// request for each public variable\n  /// @return minimum contribution required to become an approver\n  /// @return balance/current funds in the campaign\n  /// @return number of open requests\n  /// @return number of approvers in the campaign\n  /// @return the manager of the campaign\n  function getSummary() public view returns (uint, uint, uint, uint, address) {\n    return (\n      minimumContribution,\n      address(this).balance,\n      requests.length,\n      approversCount,\n      manager\n    );\n  }\n\n/// @notice Get the number of payment requests to the campaign\n/// @return the number of requests\n  function getRequestCount() public view returns (uint) {\n    return requests.length;\n  }\n\n  function getAllRequests() public view returns (uint, string[] memory, uint[] memory, address[] memory, bool[] memory, uint[] memory) {\n\n    // Request[] memory r = new Request[](requests.length);\n    string[] memory descriptions = new string[](requests.length);\n    uint[] memory values = new uint[](requests.length);\n    address[] memory recipients = new address[](requests.length);\n    bool[] memory complete = new bool[](requests.length);\n    uint[] memory approvalCounts = new uint[](requests.length);\n\n    for (uint i = 0; i < requests.length; i++) {\n          Request storage request = requests[i];\n          \n          descriptions[i] = request.description;\n          values[i] = request.value;\n          recipients[i] = request.recipient;\n          complete[i] = request.complete;\n          approvalCounts[i] = request.approvalCount;\n      }\n     \n     return (requests.length, descriptions, values, recipients, complete, approvalCounts);\n  }\n}\n",
  "sourcePath": "/home/sharan/kickstarter-campaign/ethereum/contracts/Campaign.sol",
  "compiler": {
    "name": "solc",
    "version": "0.5.16+commit.9c3226ce.Emscripten.clang"
  },
  "schemaVersion": "3.0.23",
  "updatedAt": "2020-02-28T06:50:41.229Z",
  "devdoc": {
    "author": "Author_Name_Goes_Here",
    "details": "Any notes for the devs go here",
    "methods": {
      "approveRequest(uint256)": {
        "params": {
          "index": "The index of the request to be approved"
        }
      },
      "createRequest(string,uint256,address)": {
        "details": "Only contract manager is authorized to perform this action",
        "params": {
          "description": "The purpose of the request",
          "recipient": "The address you are requesting the amount to be sent to",
          "value": "The amount you want to request (in wei)"
        }
      },
      "finalizeRequest(uint256)": {
        "params": {
          "index": "The index of the request to be finalized"
        }
      },
      "getRequestCount()": {
        "return": "the number of requests"
      },
      "getSummary()": {
        "details": "This function is for convenience so that we don't have to make a separate request for each public variable",
        "return": "minimum contribution required to become an approverbalance/current funds in the campaignnumber of open requestsnumber of approvers in the campaignthe manager of the campaign"
      }
    },
    "title": "A crowdfunding campaign contract"
  },
  "userdoc": {
    "methods": {
      "approveRequest(uint256)": {
        "notice": "Approve a payment request"
      },
      "contribute()": {
        "notice": "Contribute funds to a campaign"
      },
      "createRequest(string,uint256,address)": {
        "notice": "Request a payment from the campaign fund"
      },
      "finalizeRequest(uint256)": {
        "notice": "Finalize a request and pay out the funds"
      },
      "getRequestCount()": {
        "notice": "Get the number of payment requests to the campaign"
      },
      "getSummary()": {
        "notice": "Get a summary of contract data for our DApp"
      }
    },
    "notice": "You can use this contract to create a basic campaign, contribute, and manage spending requests"
  }
}